:100000000C9434000C943E000C943E000C943E0082
:100010000C943E000C943E000C943E000C943E0068
:100020000C943E000C943E000C943E000C943E0058
:100030000C943E000C943E000C943E000C943E0048
:100040000C943E000C943E000C943E000C943E0038
:100050000C943E000C943E000C943E000C943E0028
:100060000C943E000C943E0011241FBECFEFD8E04C
:10007000DEBFCDBF0E945F000C9472000C940000A4
:100080001092B90088E48093B80084E08093BC00AB
:10009000089584EA8093BC008091BC008823E4F733
:1000A000089584E98093BC0008958093BB0084E8A0
:1000B0008093BC008091BC008823E4F708950E94DF
:1000C00040008AB18B7F8AB98BB18B7F8BB90E943C
:1000D000490080E10E94550080E00E9455000E9486
:0800E0005100F2CFF894FFCFAC
:00000001FF
