:100000000C9434000C943E000C943E000C943E0082
:100010000C943E000C943E000C943E000C943E0068
:100020000C943E000C943E000C943E000C943E0058
:100030000C943E000C943E000C943E000C943E0048
:100040000C943E000C943E000C943E000C943E0038
:100050000C943E000C943E000C943E000C943E0028
:100060000C943E000C943E0011241FBECFEFD8E04C
:10007000DEBFCDBF0E944C000C947F000C940000AA
:1000800084B18E6284B98CB582658CBD08958EBDB5
:100090000DB407FEFDCF089585B1826085B985B1A5
:1000A000846085B90E94400085B1826085B9199944
:1000B00002C0C1E001C0C0E085B18D7F85B98DE08F
:1000C0008A95F1F700008C2F0E9447008DE08A95F9
:1000D000F1F7000085B1826085B985B18B7F85B964
:1000E0008DE08A95F1F700008C2F0E9447008DE08B
:1000F0008A95F1F7000085B1846085B9D8CFF8946E
:02010000FFCF2F
:00000001FF
