S01200007370696D6173746572312E7372656309
S11300000C9434000C943E000C943E000C943E007E
S11300100C943E000C943E000C943E000C943E0064
S11300200C943E000C943E000C943E000C943E0054
S11300300C943E000C943E000C943E000C943E0044
S11300400C943E000C943E000C943E000C943E0034
S11300500C943E000C943E000C943E000C943E0024
S11300600C943E000C943E0011241FBECFEFD8E048
S1130070DEBFCDBF0E9454000C947F000C9400009E
S113008084B18C6284B981E58CBD089595B19C627C
S113009095B9823019F485B18B7F85B908958EBDE9
S11300A00DB407FEFDCF089587B18E7F87B988B15F
S11300B0816088B90E944000309902C0C1E001C04B
S11300C0C0E082E00E94460085B18B7F85B92DE0B7
S11300D02A95F1F700008C2F0E944F008DE08A953D
S11300E0F1F7000085B1846085B99FEF29E688E1C6
S11300F0915020408040E1F700C00000DDCFF8942B
S1050100FFCF2B
S9030000FC
