S0100000737069736C6176652E73726563AD
S11300000C9434000C943E000C943E000C943E007E
S11300100C943E000C943E000C943E000C943E0064
S11300200C943E000C943E000C943E000C943E0054
S11300300C943E000C943E000C943E000C943E0044
S11300400C943E000C943E000C943E000C943E0034
S11300500C943E000C943E000C943E000C943E0024
S11300600C943E000C943E0011241FBECFEFD8E048
S1130070DEBFCDBF0E944B000C945D000C940000C9
S113008084B1806184B980E48CBD08950DB407FE09
S1130090FDCF8EB508950E9440001A9BFECF0E94AA
S11300A04600813021F488B1816088B903C088B1E9
S11100B08E7F88B91A99FECFF0CFF894FFCF57
S9030000FC
