S0110000737069736C617665322E737265637A
S11300000C9434000C943E000C943E000C943E007E
S11300100C943E000C943E000C943E000C943E0064
S11300200C943E000C943E000C943E000C943E0054
S11300300C943E000C943E000C943E000C943E0044
S11300400C943E000C943E000C943E000C943E0034
S11300500C943E000C943E000C943E000C943E0024
S11300600C943E000C943E0011241FBECFEFD8E048
S1130070DEBFCDBF0E944C000C9467000C940000BE
S113008084B1806184B98CB580648CBD08950DB44D
S113009007FEFDCF8EB50895CF93DF931F92CDB7A2
S11300A0DEB78FEF84B90E9440000E944700898325
S11300B08DE08A95F1F70000898180FD04C085B147
S11300C0816085B9F2CF85B18E7F85B9EECFF89482
S10500D0FFCF5C
S9030000FC
