S016000041546D65676133325F536C6176652E7372656320
S11300000C9434000C943E000C943E000C943E007E
S11300100C943E000C943E000C943E000C943E0064
S11300200C943E000C943E000C943E000C943E0054
S11300300C943E000C943E000C943E000C943E0044
S11300400C943E000C943E000C943E000C943E0034
S11300500C943E000C943E000C943E000C943E0024
S11300600C943E000C943E0011241FBECFEFD8E048
S1130070DEBFCDBF0E9440000C94D7000C9400005A
S11300805A9A8FEF8AB980E20E946B00C0E0D0E0F8
S113009001E010E0E12CF12C0E947100882319F09A
S11300A0813049F0F9CF0E94B500853281F08BB9D7
S11300B08F3FC9F7F1CFC130D10571F789B1817094
S11300C00E948C008823D1F3CE2DDF2DE5CF8BB990
S11300D0C02FD12FE8CF8093BA0084EC8093BC006A
S11300E00895ECEBF0E0A9EBB0E080818823ECF715
S11300F08C91982F987F807F803641F0983A41F018
S1130100903B41F0803789F782E0089580E00895BC
S113011081E0089581E008958093BB0084EC80938E
S1130120BC00ECEBF0E080818823ECF78091B9000F
S1130130887F803A39F4ECEBF0E08081806880833A
S11301408FEF0895883B69F0803C39F4ECEBF0E0E4
S11301508081806880838EEF0895883C21F08CEF45
S1130160089580E008958DEF089584EC8093BC0099
S1130170ECEBF0E080818823ECF78091B900982FB4
S1130180987E903819F48091BB000895983819F43A
S11301908091BB000895887F803A39F4ECEBF0E05D
S11301A08081806880838FEF08958EEF0895F8949E
S10501B0FFCF7B
S9030000FC
