S016000041546D65676133325F536C6176652E7372656320
S11300000C9434000C943E000C943E000C943E007E
S11300100C943E000C943E000C943E000C943E0064
S11300200C943E000C943E000C943E000C943E0054
S11300300C943E000C943E000C943E000C943E0044
S11300400C943E000C943E000C943E000C943E0034
S11300500C943E000C943E000C943E000C943E0024
S11300600C943E000C943E0011241FBECFEFD8E048
S1130070DEBFCDBF0E9446000C94DA000C94000051
S1130080209A089528980895289A08950E94400077
S113009080E20E946E0078940E947400882319F014
S11300A0813099F018C00E94B8008F3FE1F70E9498
S11300B042002FEF80E792E0215080409040E1F72A
S11300C000C000000E944400E7CF80E00E948F003F
S11300D08823D9F3E1CF0E944400DECF8093BA0095
S11300E084EC8093BC000895ECEBF0E0A9EBB0E065
S11300F080818823ECF78C91982F987F807F8036BD
S113010041F0983A41F0903B41F0803789F782E022
S1130110089580E0089581E0089581E00895809332
S1130120BB0084EC8093BC00ECEBF0E0808188237E
S1130130ECF78091B900887F803A39F4ECEBF0E079
S11301408081806880838FEF0895883B69F0803CCC
S113015039F4ECEBF0E08081806880838EEF0895C1
S1130160883C21F08CEF089580E008958DEF089588
S113017084EC8093BC00ECEBF0E080818823ECF706
S11301808091B900982F987E903819F48091BB0023
S11301900895983819F48091BB000895887F803AB7
S11301A039F4ECEBF0E08081806880838FEF089570
S10B01B08EEF0895F894FFCFCF
S9030000FC
