:100000000C9434000C9449000C9449000C94490061
:100010000C9449000C9449000C9449000C9449003C
:100020000C9449000C9449000C9449000C9449002C
:100030000C9449000C9449000C9449000C9449001C
:100040000C9449000C9449000C9449000C9449000C
:100050000C9449000C9449000C9449000C944900FC
:100060000C9449000C94490011241FBECFEFD8E036
:10007000DEBFCDBF11E0A0E0B1E0EAE4F9E002C0EC
:1000800005900D92A833B107D9F70E9451000C9446
:10009000A3040C940000209A089528980895289AA3
:1000A0000895CF93DF93CDB7DEB72A970FB6F894B4
:1000B000DEBF0FBECDBF0E94770180E20E94E90043
:1000C0000E944B00789440E051E060E081E00E94A3
:1000D000A10110E00F2EF0E2EF2EF1E0FF2EF02D47
:1000E000CE0101966C01B82E0D2D0E94EF008823E1
:1000F00019F08130E1F161C04DE051E060E082E053
:100100000E94A101812F012E000C990B9F931F9338
:10011000FF92EF92DF92CF920E94B9014B2D502FA8
:100120006DE082E00E94A1010E943301182F0F9020
:100130000F900F900F900F900F908F3F19F70E9424
:100140004D009FEF20E782E0915020408040E1F792
:1001500000C000000E944F009FEF29E688E1915007
:1001600020408040E1F700C0000010E0BECF47E231
:1001700051E060E082E00E94A101812F0E940A010B
:10018000A82E812F012E000C990B9F931F93FF9295
:10019000EF92DF92CF920E94B9014B2D502F6DE06C
:1001A00082E00E94A1011F5F0F900F900F900F90AF
:1001B0000F900F90AA2009F398CF0E944F009FEF55
:1001C00020E782E0915020408040E1F700C000002D
:1001D0008CCF8093BA0084EC8093BC000895ECEB44
:1001E000F0E0A9EBB0E080818823ECF78C91982FA8
:1001F000987F807F803641F0983A41F0903B41F003
:10020000803789F782E0089580E0089581E00895BD
:1002100081E008958093BB0084EC8093BC00ECEBFC
:10022000F0E080818823ECF78091B900887F803AE4
:1002300039F4ECEBF0E08081806880838FEF0895E3
:10024000883B69F0803C39F4ECEBF0E08081806819
:1002500080838EEF0895883C21F08CEF089580E034
:1002600008958DEF089584EC8093BC00ECEBF0E0F2
:1002700080818823ECF78091B900982F987E903880
:1002800019F48091BB000895983819F48091BB004F
:100290000895887F803A39F4ECEBF0E08081806843
:1002A00080838FEF08958EEF089585B988B1877E9A
:1002B00088B9429A82E08A95F1F700C042988FE6A9
:1002C00097E10197F1F700C00000089585B94398C0
:1002D00088B1846188B982E08A95F1F700C04298BC
:1002E0008FEC97E00197F1F700C00000089587B107
:1002F0008C6187B98FEF84B98FE39CE90197F1F79F
:1003000000C0000088E30E9455018CE00E94550166
:1003100086E00E94550181E00E94550180E80E941C
:1003200055010895CF93DF93EC018881882331F044
:1003300021960E94660189918111FBCFDF91CF91B7
:100340000895CF93DF93EA01813031F4862F8F70C7
:1003500080680E94550107C0823029F4862F8F7073
:10036000806C0E945501CE010E949201DF91CF91D5
:100370000895AEE0B0E0EFEBF1E00C947A040D8963
:100380001E8986E08C831A8309838FEF9FE79E8303
:100390008D83AE01475E5F4F6F89788DCE010196E8
:1003A0000E94DB01EF81F885E00FF11F10822E968D
:1003B000E4E00C949604ABE0B0E0E1EEF1E00C94E4
:1003C0006C046C017B018A01FC0117821682838117
:1003D00081FFCCC1CE0101963C01F6019381F7016A
:1003E00093FD859193FF81917F01882309F4BAC120
:1003F000853239F493FD859193FF81917F01853298
:1004000029F4B60190E00E94D203E7CF912C212C71
:10041000312CFFE1F315D8F08B3279F038F48032CB
:1004200079F08332A1F4232D20611DC08D3261F05B
:10043000803369F4232D216016C0832D8260382E0D
:10044000E32DE4603E2E2AC0F32DF8601DC037FC7A
:100450002DC020ED280F2A3040F08E32B9F436FC42
:1004600081C1232D2064322E19C036FE06C08AE0D9
:10047000989E200D1124922E11C0EAE02E9E200D90
:100480001124222EF32DF0623F2E08C08C3621F469
:10049000832D8068382E02C0883641F4F70193FD21
:1004A000859193FF81917F018111B3CF982F9F7D1B
:1004B0009554933028F40C5F1F4F9FE399830DC030
:1004C000833631F0833771F0833509F059C021C08C
:1004D000F801808189830E5F1F4F88248394912CBB
:1004E000530113C02801F2E04F0E511CF801A08007
:1004F000B18036FE03C0692D70E002C06FEF7FEF60
:10050000C5010E94C7034C018201F32DFF773F2EE6
:1005100016C0280122E0420E511CF801A080B180D3
:1005200036FE03C0692D70E002C06FEF7FEFC5019A
:100530000E94BC034C01F32DF0683F2E820133FC76
:100540001BC0822D90E088169906B0F4B60180E2B7
:1005500090E00E94D2032A94F4CFF50137FC8591F4
:1005600037FE81915F01B60190E00E94D203211015
:100570002A9421E0821A91088114910471F7E8C04D
:10058000843611F0893641F5F80137FE07C06081E5
:100590007181828193810C5F1F4F08C060817181DE
:1005A000072E000C880B990B0E5F1F4FF32DFF7663
:1005B0003F2E97FF09C090958095709561957F4F6C
:1005C0008F4F9F4FF0683F2E2AE030E0A3010E943A
:1005D0000E04882E861845C0853731F4232D2F7ED2
:1005E000B22E2AE030E025C0932D997FB92E8F36A8
:1005F000C1F018F4883579F0B5C0803719F0883724
:1006000021F0B0C0E92FE061BE2EB4FE0DC0FB2D7D
:10061000F460BF2E09C034FE0AC0292F2660B22E16
:1006200006C028E030E005C020E130E002C020E153
:1006300032E0F801B7FE07C0608171818281938149
:100640000C5F1F4F06C06081718180E090E00E5FFB
:100650001F4FA3010E940E04882E8618FB2DFF77E2
:100660003F2E36FE0DC0232D2E7FA22E891458F466
:1006700034FE0BC032FC09C0832D8E7EA82E05C02F
:10068000B82CA32C03C0B82C01C0B92CA4FE0FC0F9
:10069000FE01E80DF11D8081803321F49A2D997EB1
:1006A000A92E09C0A2FE06C0B394B39404C08A2D3B
:1006B000867809F0B394A3FC11C0A0FE06C0B21462
:1006C00088F4280C922C9B180EC0B21460F4B6016A
:1006D00080E290E00E94D203B394F7CFB21418F4F2
:1006E0002B1802C0982C212CA4FE10C0B60180E368
:1006F00090E00E94D203A2FE17C0A1FC03C088E7CD
:1007000090E002C088E590E0B6010CC08A2D8678A2
:1007100059F0A1FE02C08BE201C080E2A7FC8DE28D
:10072000B60190E00E94D203891438F4B60180E348
:1007300090E00E94D2039A94F7CF8A94F301E80DD7
:10074000F11D8081B60190E00E94D2038110F5CFA7
:10075000222009F442CEB60180E290E00E94D2034A
:100760002A94F6CFF6018681978102C08FEF9FEF22
:100770002B96E2E10C948804FC01059061507040D6
:100780000110D8F7809590958E0F9F1F0895FC015A
:100790006150704001900110D8F7809590958E0FB0
:1007A0009F1F08950F931F93CF93DF93FB01238126
:1007B00021FD03C08FEF9FEF2CC022FF16C04681A2
:1007C0005781248135814217530744F4A081B181B8
:1007D0009D012F5F3F4F318320838C93268137818A
:1007E0002F5F3F4F3783268314C08B01EC01FB0141
:1007F0000084F185E02D0995892BE1F6D801169644
:100800008D919C911797019617969C938E931697AE
:10081000CE01DF91CF911F910F910895FA01AA2780
:10082000283051F1203181F1E8946F936E7F6E5F33
:100830007F4F8F4F9F4FAF4FB1E03ED0B4E03CD0E1
:10084000670F781F891F9A1FA11D680F791F8A1FC4
:10085000911DA11D6A0F711D811D911DA11D20D02B
:1008600009F468943F912AE0269F11243019305DE5
:100870003193DEF6CF010895462F4770405D4193D6
:10088000B3E00FD0C9F7F6CF462F4F70405D4A3323
:1008900018F0495D31FD4052419302D0A9F7EACFEB
:1008A000B4E0A6959795879577956795BA95C9F71A
:1008B00000976105710508959B01AC010A2E06940D
:1008C0005795479537952795BA95C9F7620F731FC6
:1008D000841F951FA01D08952F923F924F925F9203
:1008E0006F927F928F929F92AF92BF92CF92DF9240
:1008F000EF92FF920F931F93CF93DF93CDB7DEB7A5
:10090000CA1BDB0B0FB6F894DEBF0FBECDBF099438
:100910002A88398848885F846E847D848C849B848F
:10092000AA84B984C884DF80EE80FD800C811B819D
:10093000AA81B981CE0FD11D0FB6F894DEBF0FBECC
:0A094000CDBFED010895F894FFCF3C
:10094A00536C617665204465766963650052656318
:10095A00656976696E67203A2020202020202000D1
:10096A002564202020200053656E64696E67203A52
:08097A00202020202020200095
:00000001FF
