:100000000C9434000C9449000C9449000C94490061
:100010000C9449000C9449000C9449000C9449003C
:100020000C9449000C9449000C9449000C9449002C
:100030000C9449000C9449000C9449000C9449001C
:100040000C9449000C9449000C9449000C9449000C
:100050000C9449000C9449000C9449000C944900FC
:100060000C9449000C94490011241FBECFEFD8E036
:10007000DEBFCDBF11E0A0E0B1E0E8E3F3E002C0F5
:1000800005900D92AA30B107D9F70E9451000C9447
:100090009A010C940000209A089528980895289AAF
:1000A0000895CF92DF92EF92FF920F931F93CF9319
:1000B000DF93CDB7DEB72A970FB6F894DEBF0FBE39
:1000C000CDBF85E0E0E0F1E0DE01119601900D92F8
:1000D0008A95E1F7FE01369685E0DF011D928A954B
:1000E000E9F70E9484010E94D9000E944B0080EA37
:1000F0000E94DF0080E00E943401FE0131967F0102
:1001000000E010E06F0107C0D7018D917D010E94D2
:1001100034010F5F1F4FF60101900020E9F731977E
:10012000EC19FD090E171F0778F30E942B01EFE170
:10013000FEE43197F1F700C0000080EA0E94DF0082
:1001400080E00E94340181EA0E94050100E010E095
:10015000CE0101966C010CC00E944B01F82E0E944A
:10016000720194E7F91202C00E944D000F5F1F4F09
:10017000F60101900020E9F73197EC19FD090E17FF
:100180001F0750F30E9456010E942B010E944F004E
:1001900080E090E02A960FB6F894DEBF0FBECDBF88
:1001A000DF91CF911F910F91FF90EF90DF90CF9053
:1001B00008951092B90080E28093B800089594EAFF
:1001C0009093BC00ECEBF0E090819923ECF79091D8
:1001D000B900987F983099F48093BB0084E88093AD
:1001E000BC00ECEBF0E080818823ECF78091B90053
:1001F000887F883131F0803231F083E0089580E0EB
:10020000089581E0089582E0089594EA9093BC00F7
:10021000ECEBF0E090819923ECF79091B900987F96
:10022000903199F48093BB0084E88093BC00ECEBA0
:10023000F0E080818823ECF78091B900887F8034DA
:1002400031F0803231F083E0089580E0089581E05C
:10025000089582E0089584E98093BC00ECEBF0E01F
:10026000808184FDFDCF08958093BB0084E8809356
:10027000BC00ECEBF0E080818823ECF78091B900C2
:10028000887F883221F0803321F082E0089580E079
:10029000089581E0089584EC8093BC00ECEBF0E0DD
:1002A00080818823ECF78091BB00089584E88093D7
:1002B000BC00ECEBF0E080818823ECF78091BB0080
:1002C000089585B984E088B98FEC97E00197F1F73C
:1002D00000C0000018B88FE097E20197F1F700C066
:1002E0000000089585B984E188B98FEC97E0019703
:1002F000F1F700C0000080E188B98FE097E2019734
:10030000F1F700C0000008958FEF87B984B98FE33B
:100310009CE90197F1F700C0000088E30E946101A9
:1003200081E00E9461018CE00E94610180E80E94EE
:0803300061010895F894FFCF6C
:0A03380074657374000000000000FB
:00000001FF
