:100000000C9434000C943E000C943E000C943E0082
:100010000C943E000C943E000C943E000C943E0068
:100020000C943E000C943E000C943E000C943E0058
:100030000C943E000C943E000C943E000C943E0048
:100040000C943E000C943E000C943E000C943E0038
:100050000C943E000C943E000C943E000C943E0028
:100060000C943E000C943E0011241FBECFEFD8E04C
:10007000DEBFCDBF0E944A000C94C8000C94000063
:10008000209A089586B1817090E008952898089587
:10009000289A08950E947C000E9440003898409A57
:1000A000C1E40E944200892BE9F080E20E948200B4
:1000B00080E00E94B1008C2F0E94B1000E94A80035
:1000C000C13411F0C1E401C0C2E40E9446002FEF28
:1000D00080E792E0215080409040E1F700C00000AE
:1000E0000E9448002FEF89E698E12150804090401F
:1000F000E1F700C00000D5CF1092B90080E28093F4
:10010000B800089594EA9093BC00ECEBF0E0908185
:100110009923ECF79091B900987F983099F48093E7
:10012000BB0084E88093BC00ECEBF0E08081882386
:10013000ECF78091B900887F883131F0803231F05E
:1001400083E0089580E0089581E0089582E00895B5
:1001500084E98093BC00ECEBF0E0808184FDFDCF6E
:1001600008958093BB0084E88093BC00ECEBF0E042
:1001700080818823ECF78091B900887F883221F054
:10018000803321F082E0089580E0089581E00895B1
:04019000F894FFCF11
:00000001FF
