:100000000C9434000C943E000C943E000C943E0082
:100010000C943E000C943E000C943E000C943E0068
:100020000C943E000C943E000C943E000C943E0058
:100030000C943E000C943E000C943E000C943E0048
:100040000C943E000C943E000C943E000C943E0038
:100050000C943E000C943E000C943E000C943E0028
:100060000C943E000C943E0011241FBECFEFD8E04C
:10007000DEBFCDBF0E944A000C94C5000C94000066
:10008000209A089586B1817090E008952898089587
:10009000289A08950E9479000E9440003898409A5A
:1000A0000E944200892BC9F00E94460080E20E9413
:1000B0007F0080E20E94AE0081E40E94AE000E94B8
:1000C000A5002FEF80E792E0215080409040E1F7BB
:1000D00000C000000E94480002C00E9448002FEFAC
:1000E00084E39CE0215080409040E1F700C0000094
:1000F000D7CF1092B90080E28093B800089594EAB7
:100100009093BC00ECEBF0E090819923ECF7909198
:10011000B900987F983099F48093BB0084E880936D
:10012000BC00ECEBF0E080818823ECF78091B90013
:10013000887F883131F0803231F083E0089580E0AB
:10014000089581E0089582E0089584E98093BC00D9
:10015000ECEBF0E0808184FDFDCF08958093BB003F
:1001600084E88093BC00ECEBF0E080818823ECF71E
:100170008091B900887F883221F0803321F082E0BD
:0E018000089580E0089581E00895F894FFCF7F
:00000001FF
